:020000040800F2
:100000006806002089010008810500084D020008EB
:100010007D050008450200081D06000800000000DC
:10002000000000000000000000000000B50500080E
:100030004902000800000000B1050008B9050008E9
:10004000A3010008A3010008A3010008A301000800
:10005000A3010008A3010008A3010008A3010008F0
:10006000A3010008A3010008A3010008A3010008E0
:10007000A3010008A3010008A3010008A3010008D0
:10008000A3010008A3010008A3010008A3010008C0
:10009000A3010008A3010008A3010008A3010008B0
:1000A000A3010008A3010008A3010008A3010008A0
:1000B000A3010008A3010008A3010008A301000890
:1000C000A3010008A3010008A3010008A301000880
:1000D000A3010008A3010008A3010008A301000870
:1000E000A3010008A3010008A301000800F002F822
:1000F00000F03AF80AA090E8000C82448344AAF188
:100100000107DA4501D100F02FF8AFF2090EBAE885
:100110000F0013F0010F18BFFB1A43F0010318473B
:100120007805000098050000103A24BF78C878C10F
:10013000FAD8520724BF30C830C144BF04680C60ED
:10014000704700000023002400250026103A28BF35
:1001500078C1FBD8520728BF30C148BF0B60704739
:100160001FB51FBD10B510BD00F031F81146FFF7E7
:10017000F7FF00F075FA00F04FF803B4FFF7F2FF55
:1001800003BC00F057F800000948804709480047C1
:10019000FEE7FEE7FEE7FEE7FEE7FEE7FEE7FEE737
:1001A000FEE7FEE704480549054A064B7047000094
:1001B00019060008ED00000868000020680600200D
:1001C000680200206802002070477047704775463B
:1001D00000F02CF8AE4605006946534620F00700B3
:1001E000854618B020B5FFF7DDFFBDE820404FF091
:1001F00000064FF000074FF000084FF0000BAC4630
:10020000ACE8C009ACE8C009ACE8C009ACE8C0097A
:1002100021F007018D46704710B50446AFF300800A
:100220002046BDE81040FFF7A8BF00000048704717
:100230000800002001491820ABBEFEE7260002009E
:1002400070470000FEE7000070470000FEE7000076
:1002500081B041F21C00C4F20200016841F08051FB
:100260000160006800F080500090009801B0704775
:1002700081B041F21801C4F202010A6802430A6027
:10028000096808400090009801B0704742F20000F1
:10029000C4F20200006800F00700704742F200005C
:1002A000C4F202000168022262F302010160704799
:1002B0000420C4F201000168022262F31A610160A5
:1002C000704700002DE9F047B1F801700C4697FA2D
:1002D000A7F1B1FA81F537FA05F133D0804640F243
:1002E00001194FF0011A03E0013537FA05F029D062
:1002F00027FA05F0C007F7D0B5F108000AFA00F0B8
:1003000040F08066606838BF09FA05F6082804D115
:1003100022694046314600F049F86268404631465D
:1003200000F01CF8606840F008000928DCD1A268E1
:100330004046314600F048F8E2684046314600F059
:1003400021F8D1E70020BDE8F087000041F2140059
:10035000C4F201004FF400510160704780B54FEACC
:10036000116E91FAA1F1B1FA81F15EF800C0890035
:100370000F238B402CEA030302FA01F119434EF8D4
:10038000001080BD80B54FEA116E91FAA1F1B1FA6B
:1003900081F15EF800C0890004238B402CEA03033E
:1003A00002FA01F119434EF8001080BDC3684FEA0C
:1003B000112C23EA11219CFAACF3B3FA83F39A408F
:1003C0001143C1607047000080B54FEA116E91FA89
:1003D000A1F1B1FA81F15EF800C0890003238B40DE
:1003E0002CEA030302FA01F119434EF8001080BD14
:1003F00041F20C00C4F20100016801F4005141EA2D
:10040000014181F4005141607047000080B500F067
:1004100001F880BD44F6D351C1F26201A0FB010195
:100420004FF0FF3000EB91104EF21001CEF20001C0
:1004300048600020886005200860704741F2040091
:10044000C4F20200006800F00C00704741F20000A6
:10045000C4F20200016841F480310160704700007D
:1004600041F20000C4F202000068C0F3404070474F
:1004700041F20400C4F2020001681D2262F315413A
:100480000160704741F20000C4F20200016841F0CF
:10049000807101607047000041F20000C4F2020068
:1004A0000068C0F34060704741F20400C4F20200EB
:1004B000016821F0F00101607047000041F2040082
:1004C000C4F202000168042262F30A21016070474D
:1004D00041F20400C4F20200016821F4605101609D
:1004E0007047000041F20400C4F2020001680222D9
:1004F00062F301010160704740F20001C2F20001A5
:100500000860704781B04EF21001CEF200010A6817
:1005100001300092009A28BF4FF0FF3030B100BF89
:100520000A68D20300EBE2700028F9D101B07047ED
:1005300010B586B0002410200594CDE90344CDE920
:100540000144FFF795FE2020FFF792FE0420FFF7FD
:100550008FFEFFF7FBFE2020C0F22040019001201B
:1005600002900220CDE9030441F20000C4F2010030
:1005700001A9FFF7A7FE06B010BD0000FEE70000CE
:10058000FEE7000000F0070080F00701042928BF03
:1005900004214FF0FF32033802FA01F14FF00F024D
:1005A00038BF002022EA010101FA00F07047000084
:1005B00070470000704700007047000010B5FFF75B
:1005C0006DFE00BFFFF762FE0228FBD1FFF73EFF82
:1005D000FFF746FF0128FBD1FFF74AFFFFF752FF65
:1005E000FFF75AFF0128FBD1FFF75EFFFFF766FF19
:1005F000FFF76EFFFFF776FFFFF720FF0828FBD11C
:100600004AF20024C0F24A442046FFF7FFFE20468B
:10061000FFF772FF10BD000070470000FEE700000A
:100620004EF60C50CEF200000068C0F30220704776
:100630004EF623510001CEF2000108707047000011
:100640004EF60C50CEF2000001684FF6FF0211404A
:1006500040F20032C0F2FA521143016070470000CC
:100660000120FFF705FEFFF7F3FDFFF7E9FFFFF7B6
:10067000D7FFFFF787FFFFF7DBFFFFF719FEFFF755
:100680009DFFFFF755FF00BFFFF7B2FE4FF4FA7072
:10069000FFF738FFF8E70000B80600080000002068
:1006A0000800000028010008C0060008080000201B
:1006B00060060000440100080024F400000000006F
:04000005080000ED02
:00000001FF
